{
  "_format": "hh-sol-artifact-1",
  "contractName": "CustomDex",
  "sourceName": "contracts/CustomEx.sol",
  "abi": [
    {
      "inputs": [],
      "stateMutability": "nonpayable",
      "type": "constructor"
    },
    {
      "inputs": [],
      "name": "_historyIndex",
      "outputs": [
        {
          "internalType": "uint256",
          "name": "",
          "type": "uint256"
        }
      ],
      "stateMutability": "view",
      "type": "function"
    },
    {
      "inputs": [],
      "name": "getAllHistory",
      "outputs": [
        {
          "components": [
            {
              "internalType": "uint256",
              "name": "historyId",
              "type": "uint256"
            },
            {
              "internalType": "string",
              "name": "tokenA",
              "type": "string"
            },
            {
              "internalType": "string",
              "name": "tokenB",
              "type": "string"
            },
            {
              "internalType": "uint256",
              "name": "inputValue",
              "type": "uint256"
            },
            {
              "internalType": "uint256",
              "name": "outputValue",
              "type": "uint256"
            },
            {
              "internalType": "address",
              "name": "userAddress",
              "type": "address"
            }
          ],
          "internalType": "struct CustomDex.History[]",
          "name": "",
          "type": "tuple[]"
        }
      ],
      "stateMutability": "view",
      "type": "function"
    },
    {
      "inputs": [
        {
          "internalType": "string",
          "name": "tokenName",
          "type": "string"
        },
        {
          "internalType": "address",
          "name": "_address",
          "type": "address"
        }
      ],
      "name": "getBalance",
      "outputs": [
        {
          "internalType": "uint256",
          "name": "",
          "type": "uint256"
        }
      ],
      "stateMutability": "view",
      "type": "function"
    },
    {
      "inputs": [],
      "name": "getEthBalance",
      "outputs": [
        {
          "internalType": "uint256",
          "name": "",
          "type": "uint256"
        }
      ],
      "stateMutability": "view",
      "type": "function"
    },
    {
      "inputs": [
        {
          "internalType": "string",
          "name": "tokenName",
          "type": "string"
        }
      ],
      "name": "getName",
      "outputs": [
        {
          "internalType": "string",
          "name": "",
          "type": "string"
        }
      ],
      "stateMutability": "view",
      "type": "function"
    },
    {
      "inputs": [
        {
          "internalType": "string",
          "name": "tokenName",
          "type": "string"
        }
      ],
      "name": "getTokenAddress",
      "outputs": [
        {
          "internalType": "address",
          "name": "",
          "type": "address"
        }
      ],
      "stateMutability": "view",
      "type": "function"
    },
    {
      "inputs": [
        {
          "internalType": "string",
          "name": "tokenName",
          "type": "string"
        }
      ],
      "name": "getTotalSupply",
      "outputs": [
        {
          "internalType": "uint256",
          "name": "",
          "type": "uint256"
        }
      ],
      "stateMutability": "view",
      "type": "function"
    },
    {
      "inputs": [
        {
          "internalType": "string",
          "name": "tokenName",
          "type": "string"
        }
      ],
      "name": "swapEthToToken",
      "outputs": [
        {
          "internalType": "uint256",
          "name": "",
          "type": "uint256"
        }
      ],
      "stateMutability": "payable",
      "type": "function"
    },
    {
      "inputs": [
        {
          "internalType": "string",
          "name": "tokenName",
          "type": "string"
        },
        {
          "internalType": "uint256",
          "name": "_amount",
          "type": "uint256"
        }
      ],
      "name": "swapTokenToEth",
      "outputs": [
        {
          "internalType": "uint256",
          "name": "",
          "type": "uint256"
        }
      ],
      "stateMutability": "nonpayable",
      "type": "function"
    },
    {
      "inputs": [
        {
          "internalType": "string",
          "name": "srcTokenName",
          "type": "string"
        },
        {
          "internalType": "string",
          "name": "destTokenName",
          "type": "string"
        },
        {
          "internalType": "uint256",
          "name": "_amount",
          "type": "uint256"
        }
      ],
      "name": "swapTokenToToken",
      "outputs": [],
      "stateMutability": "nonpayable",
      "type": "function"
    },
    {
      "inputs": [
        {
          "internalType": "string",
          "name": "",
          "type": "string"
        }
      ],
      "name": "tokenInstanceMap",
      "outputs": [
        {
          "internalType": "contract ERC20",
          "name": "",
          "type": "address"
        }
      ],
      "stateMutability": "view",
      "type": "function"
    },
    {
      "inputs": [
        {
          "internalType": "uint256",
          "name": "",
          "type": "uint256"
        }
      ],
      "name": "tokens",
      "outputs": [
        {
          "internalType": "string",
          "name": "",
          "type": "string"
        }
      ],
      "stateMutability": "view",
      "type": "function"
    }
  ],
  "bytecode": "0x60806040526040518061010001604052806040518060400160405280600a81526020017f546574686572205553440000000000000000000000000000000000000000000081525081526020016040518060400160405280600381526020017f424e42000000000000000000000000000000000000000000000000000000000081525081526020016040518060400160405280600881526020017f55534420436f696e00000000000000000000000000000000000000000000000081525081526020016040518060400160405280600581526020017f737445544800000000000000000000000000000000000000000000000000000081525081526020016040518060400160405280600481526020017f54524f4e0000000000000000000000000000000000000000000000000000000081525081526020016040518060400160405280600b81526020017f4d6174696320546f6b656e00000000000000000000000000000000000000000081525081526020016040518060400160405280600981526020017f534849424120494e55000000000000000000000000000000000000000000000081525081526020016040518060400160405280600781526020017f556e6973776170000000000000000000000000000000000000000000000000008152508152506000906008620001f89291906200033d565b50655af3107a40006002553480156200021057600080fd5b5060005b600080549050811015620003365760008082815481106200023a576200023962000758565b5b90600052602060002001600083815481106200025b576200025a62000758565b5b906000526020600020016040516200027390620003a4565b6200028092919062000600565b604051809103906000f0801580156200029d573d6000803e3d6000fd5b50905080600160008481548110620002ba57620002b962000758565b5b90600052602060002001604051620002d39190620005e7565b908152602001604051809103902060006101000a81548173ffffffffffffffffffffffffffffffffffffffff021916908373ffffffffffffffffffffffffffffffffffffffff1602179055505080806200032d90620006ac565b91505062000214565b5062000787565b82805482825590600052602060002090810192821562000391579160200282015b82811115620003905782518290805190602001906200037f929190620003b2565b50916020019190600101906200035e565b5b509050620003a0919062000443565b5090565b61190b806200233983390190565b828054620003c09062000676565b90600052602060002090601f016020900481019282620003e4576000855562000430565b82601f10620003ff57805160ff191683800117855562000430565b8280016001018555821562000430579182015b828111156200042f57825182559160200191906001019062000412565b5b5090506200043f91906200046b565b5090565b5b808211156200046757600081816200045d91906200048a565b5060010162000444565b5090565b5b80821115620004865760008160009055506001016200046c565b5090565b508054620004989062000676565b6000825580601f10620004ac5750620004cd565b601f016020900490600052602060002090810190620004cc91906200046b565b5b50565b60008154620004df8162000676565b620004eb818662000650565b945060018216600081146200050957600181146200051c5762000553565b60ff198316865260208601935062000553565b62000527856200063b565b60005b838110156200054b578154818901526001820191506020810190506200052a565b808801955050505b50505092915050565b600081546200056b8162000676565b62000577818662000661565b94506001821660008114620005955760018114620005a757620005de565b60ff19831686528186019350620005de565b620005b2856200063b565b60005b83811015620005d657815481890152600182019150602081019050620005b5565b838801955050505b50505092915050565b6000620005f582846200055c565b915081905092915050565b600060408201905081810360008301526200061c8185620004d0565b90508181036020830152620006328184620004d0565b90509392505050565b60008190508160005260206000209050919050565b600082825260208201905092915050565b600081905092915050565b6000819050919050565b600060028204905060018216806200068f57607f821691505b60208210811415620006a657620006a562000729565b5b50919050565b6000620006b9826200066c565b91507fffffffffffffffffffffffffffffffffffffffffffffffffffffffffffffffff821415620006ef57620006ee620006fa565b5b600182019050919050565b7f4e487b7100000000000000000000000000000000000000000000000000000000600052601160045260246000fd5b7f4e487b7100000000000000000000000000000000000000000000000000000000600052602260045260246000fd5b7f4e487b7100000000000000000000000000000000000000000000000000000000600052603260045260246000fd5b611ba280620007976000396000f3fe6080604052600436106100a75760003560e01c806370ed0ada1161006457806370ed0ada146101e957806389f4b31714610214578063a93325ed14610251578063bf015aae1461028e578063c4091236146102b7578063db6f63ee146102f4576100a7565b806319b3c12d146100ac57806339c5891a146100d75780634f64b2be146101025780635463109e1461013f57806363fcf7c51461017c5780636932cf81146101ac575b600080fd5b3480156100b857600080fd5b506100c1610331565b6040516100ce91906116d1565b60405180910390f35b3480156100e357600080fd5b506100ec610337565b6040516100f99190611652565b60405180910390f35b34801561010e57600080fd5b506101296004803603810190610124919061133c565b6105bc565b604051610136919061168f565b60405180910390f35b34801561014b57600080fd5b5061016660048036038101906101619190611167565b610668565b60405161017391906116d1565b60405180910390f35b61019660048036038101906101919190611167565b61072d565b6040516101a391906116d1565b60405180910390f35b3480156101b857600080fd5b506101d360048036038101906101ce9190611167565b61087d565b6040516101e0919061168f565b60405180910390f35b3480156101f557600080fd5b506101fe610947565b60405161020b91906116d1565b60405180910390f35b34801561022057600080fd5b5061023b600480360381019061023691906111f9565b61094f565b60405161024891906116d1565b60405180910390f35b34801561025d57600080fd5b5061027860048036038101906102739190611167565b610a20565b6040516102859190611674565b60405180910390f35b34801561029a57600080fd5b506102b560048036038101906102b09190611255565b610a69565b005b3480156102c357600080fd5b506102de60048036038101906102d99190611167565b610c24565b6040516102eb91906115d7565b60405180910390f35b34801561030057600080fd5b5061031b600480360381019061031691906112e0565b610c6c565b60405161032891906116d1565b60405180910390f35b60035481565b6060600060035490506000808267ffffffffffffffff81111561035d5761035c611aaa565b5b60405190808252806020026020018201604052801561039657816020015b610383610f17565b81526020019060019003908161037b5790505b50905060005b838110156105b25760006001826103b391906117b3565b90506000600460008381526020019081526020016000209050806040518060c0016040529081600082015481526020016001820180546103f290611942565b80601f016020809104026020016040519081016040528092919081815260200182805461041e90611942565b801561046b5780601f106104405761010080835404028352916020019161046b565b820191906000526020600020905b81548152906001019060200180831161044e57829003601f168201915b5050505050815260200160028201805461048490611942565b80601f01602080910402602001604051908101604052809291908181526020018280546104b090611942565b80156104fd5780601f106104d2576101008083540402835291602001916104fd565b820191906000526020600020905b8154815290600101906020018083116104e057829003601f168201915b5050505050815260200160038201548152602001600482015481526020016005820160009054906101000a900473ffffffffffffffffffffffffffffffffffffffff1673ffffffffffffffffffffffffffffffffffffffff1673ffffffffffffffffffffffffffffffffffffffff168152505084868151811061058357610582611a7b565b5b602002602001018190525060018561059b91906117b3565b9450505080806105aa906119a5565b91505061039c565b5080935050505090565b600081815481106105cc57600080fd5b9060005260206000200160009150905080546105e790611942565b80601f016020809104026020016040519081016040528092919081815260200182805461061390611942565b80156106605780601f1061063557610100808354040283529160200191610660565b820191906000526020600020905b81548152906001019060200180831161064357829003601f168201915b505050505081565b600060018260405161067a91906115c0565b908152602001604051809103902060009054906101000a900473ffffffffffffffffffffffffffffffffffffffff1673ffffffffffffffffffffffffffffffffffffffff166318160ddd6040518163ffffffff1660e01b815260040160206040518083038186803b1580156106ee57600080fd5b505afa158015610702573d6000803e3d6000fd5b505050506040513d601f19601f820116820180604052508101906107269190611369565b9050919050565b6000803490506000670de0b6b3a76400006002548361074c9190611809565b610756919061183a565b905060018460405161076891906115c0565b908152602001604051809103902060009054906101000a900473ffffffffffffffffffffffffffffffffffffffff1673ffffffffffffffffffffffffffffffffffffffff1663a9059cbb33836040518363ffffffff1660e01b81526004016107d1929190611629565b602060405180830381600087803b1580156107eb57600080fd5b505af11580156107ff573d6000803e3d6000fd5b505050506040513d601f19601f82011682018060405250810190610823919061113a565b61082c57600080fd5b60006040518060400160405280600581526020017f4574686572000000000000000000000000000000000000000000000000000000815250905061087285828585610e49565b819350505050919050565b606060018260405161088f91906115c0565b908152602001604051809103902060009054906101000a900473ffffffffffffffffffffffffffffffffffffffff1673ffffffffffffffffffffffffffffffffffffffff166306fdde036040518163ffffffff1660e01b815260040160006040518083038186803b15801561090357600080fd5b505afa158015610917573d6000803e3d6000fd5b505050506040513d6000823e3d601f19601f8201168201806040525081019061094091906111b0565b9050919050565b600047905090565b600060018360405161096191906115c0565b908152602001604051809103902060009054906101000a900473ffffffffffffffffffffffffffffffffffffffff1673ffffffffffffffffffffffffffffffffffffffff166370a08231836040518263ffffffff1660e01b81526004016109c891906115d7565b60206040518083038186803b1580156109e057600080fd5b505afa1580156109f4573d6000803e3d6000fd5b505050506040513d601f19601f82011682018060405250810190610a189190611369565b905092915050565b6001818051602081018201805184825260208301602085012081835280955050505050506000915054906101000a900473ffffffffffffffffffffffffffffffffffffffff1681565b600183604051610a7991906115c0565b908152602001604051809103902060009054906101000a900473ffffffffffffffffffffffffffffffffffffffff1673ffffffffffffffffffffffffffffffffffffffff166323b872dd3330846040518463ffffffff1660e01b8152600401610ae4939291906115f2565b602060405180830381600087803b158015610afe57600080fd5b505af1158015610b12573d6000803e3d6000fd5b505050506040513d601f19601f82011682018060405250810190610b36919061113a565b610b3f57600080fd5b600182604051610b4f91906115c0565b908152602001604051809103902060009054906101000a900473ffffffffffffffffffffffffffffffffffffffff1673ffffffffffffffffffffffffffffffffffffffff1663a9059cbb33836040518363ffffffff1660e01b8152600401610bb8929190611629565b602060405180830381600087803b158015610bd257600080fd5b505af1158015610be6573d6000803e3d6000fd5b505050506040513d601f19601f82011682018060405250810190610c0a919061113a565b610c1357600080fd5b610c1f83838384610e49565b505050565b6000600182604051610c3691906115c0565b908152602001604051809103902060009054906101000a900473ffffffffffffffffffffffffffffffffffffffff169050919050565b600080670de0b6b3a764000083610c839190611809565b9050600060025482610c95919061183a565b905080471015610cda576040517f08c379a0000000000000000000000000000000000000000000000000000000008152600401610cd1906116b1565b60405180910390fd5b3373ffffffffffffffffffffffffffffffffffffffff166108fc829081150290604051600060405180830381858888f19350505050158015610d20573d6000803e3d6000fd5b50600185604051610d3191906115c0565b908152602001604051809103902060009054906101000a900473ffffffffffffffffffffffffffffffffffffffff1673ffffffffffffffffffffffffffffffffffffffff166323b872dd3330876040518463ffffffff1660e01b8152600401610d9c939291906115f2565b602060405180830381600087803b158015610db657600080fd5b505af1158015610dca573d6000803e3d6000fd5b505050506040513d601f19601f82011682018060405250810190610dee919061113a565b610df757600080fd5b60006040518060400160405280600581526020017f45746865720000000000000000000000000000000000000000000000000000008152509050610e3d86828585610e49565b81935050505092915050565b60036000815480929190610e5c906119a5565b919050555060006003549050600060046000838152602001908152602001600020905081816000018190555085816001019080519060200190610ea0929190610f63565b5084816002019080519060200190610eb9929190610f63565b50838160030181905550828160040181905550338160050160006101000a81548173ffffffffffffffffffffffffffffffffffffffff021916908373ffffffffffffffffffffffffffffffffffffffff160217905550505050505050565b6040518060c001604052806000815260200160608152602001606081526020016000815260200160008152602001600073ffffffffffffffffffffffffffffffffffffffff1681525090565b828054610f6f90611942565b90600052602060002090601f016020900481019282610f915760008555610fd8565b82601f10610faa57805160ff1916838001178555610fd8565b82800160010185558215610fd8579182015b82811115610fd7578251825591602001919060010190610fbc565b5b509050610fe59190610fe9565b5090565b5b80821115611002576000816000905550600101610fea565b5090565b600061101961101484611711565b6116ec565b90508281526020810184848401111561103557611034611ade565b5b611040848285611900565b509392505050565b600061105b61105684611711565b6116ec565b90508281526020810184848401111561107757611076611ade565b5b61108284828561190f565b509392505050565b60008135905061109981611b27565b92915050565b6000815190506110ae81611b3e565b92915050565b600082601f8301126110c9576110c8611ad9565b5b81356110d9848260208601611006565b91505092915050565b600082601f8301126110f7576110f6611ad9565b5b8151611107848260208601611048565b91505092915050565b60008135905061111f81611b55565b92915050565b60008151905061113481611b55565b92915050565b6000602082840312156111505761114f611ae8565b5b600061115e8482850161109f565b91505092915050565b60006020828403121561117d5761117c611ae8565b5b600082013567ffffffffffffffff81111561119b5761119a611ae3565b5b6111a7848285016110b4565b91505092915050565b6000602082840312156111c6576111c5611ae8565b5b600082015167ffffffffffffffff8111156111e4576111e3611ae3565b5b6111f0848285016110e2565b91505092915050565b600080604083850312156112105761120f611ae8565b5b600083013567ffffffffffffffff81111561122e5761122d611ae3565b5b61123a858286016110b4565b925050602061124b8582860161108a565b9150509250929050565b60008060006060848603121561126e5761126d611ae8565b5b600084013567ffffffffffffffff81111561128c5761128b611ae3565b5b611298868287016110b4565b935050602084013567ffffffffffffffff8111156112b9576112b8611ae3565b5b6112c5868287016110b4565b92505060406112d686828701611110565b9150509250925092565b600080604083850312156112f7576112f6611ae8565b5b600083013567ffffffffffffffff81111561131557611314611ae3565b5b611321858286016110b4565b925050602061133285828601611110565b9150509250929050565b60006020828403121561135257611351611ae8565b5b600061136084828501611110565b91505092915050565b60006020828403121561137f5761137e611ae8565b5b600061138d84828501611125565b91505092915050565b60006113a28383611512565b905092915050565b6113b381611894565b82525050565b6113c281611894565b82525050565b60006113d382611752565b6113dd8185611775565b9350836020820285016113ef85611742565b8060005b8581101561142b578484038952815161140c8582611396565b945061141783611768565b925060208a019950506001810190506113f3565b50829750879550505050505092915050565b611446816118dc565b82525050565b60006114578261175d565b6114618185611786565b935061147181856020860161190f565b61147a81611aed565b840191505092915050565b60006114908261175d565b61149a8185611797565b93506114aa81856020860161190f565b6114b381611aed565b840191505092915050565b60006114c98261175d565b6114d381856117a8565b93506114e381856020860161190f565b80840191505092915050565b60006114fc601f83611797565b915061150782611afe565b602082019050919050565b600060c08301600083015161152a60008601826115a2565b5060208301518482036020860152611542828261144c565b9150506040830151848203604086015261155c828261144c565b915050606083015161157160608601826115a2565b50608083015161158460808601826115a2565b5060a083015161159760a08601826113aa565b508091505092915050565b6115ab816118d2565b82525050565b6115ba816118d2565b82525050565b60006115cc82846114be565b915081905092915050565b60006020820190506115ec60008301846113b9565b92915050565b600060608201905061160760008301866113b9565b61161460208301856113b9565b61162160408301846115b1565b949350505050565b600060408201905061163e60008301856113b9565b61164b60208301846115b1565b9392505050565b6000602082019050818103600083015261166c81846113c8565b905092915050565b6000602082019050611689600083018461143d565b92915050565b600060208201905081810360008301526116a98184611485565b905092915050565b600060208201905081810360008301526116ca816114ef565b9050919050565b60006020820190506116e660008301846115b1565b92915050565b60006116f6611707565b90506117028282611974565b919050565b6000604051905090565b600067ffffffffffffffff82111561172c5761172b611aaa565b5b61173582611aed565b9050602081019050919050565b6000819050602082019050919050565b600081519050919050565b600081519050919050565b6000602082019050919050565b600082825260208201905092915050565b600082825260208201905092915050565b600082825260208201905092915050565b600081905092915050565b60006117be826118d2565b91506117c9836118d2565b9250827fffffffffffffffffffffffffffffffffffffffffffffffffffffffffffffffff038211156117fe576117fd6119ee565b5b828201905092915050565b6000611814826118d2565b915061181f836118d2565b92508261182f5761182e611a1d565b5b828204905092915050565b6000611845826118d2565b9150611850836118d2565b9250817fffffffffffffffffffffffffffffffffffffffffffffffffffffffffffffffff0483118215151615611889576118886119ee565b5b828202905092915050565b600061189f826118b2565b9050919050565b60008115159050919050565b600073ffffffffffffffffffffffffffffffffffffffff82169050919050565b6000819050919050565b60006118e7826118ee565b9050919050565b60006118f9826118b2565b9050919050565b82818337600083830152505050565b60005b8381101561192d578082015181840152602081019050611912565b8381111561193c576000848401525b50505050565b6000600282049050600182168061195a57607f821691505b6020821081141561196e5761196d611a4c565b5b50919050565b61197d82611aed565b810181811067ffffffffffffffff8211171561199c5761199b611aaa565b5b80604052505050565b60006119b0826118d2565b91507fffffffffffffffffffffffffffffffffffffffffffffffffffffffffffffffff8214156119e3576119e26119ee565b5b600182019050919050565b7f4e487b7100000000000000000000000000000000000000000000000000000000600052601160045260246000fd5b7f4e487b7100000000000000000000000000000000000000000000000000000000600052601260045260246000fd5b7f4e487b7100000000000000000000000000000000000000000000000000000000600052602260045260246000fd5b7f4e487b7100000000000000000000000000000000000000000000000000000000600052603260045260246000fd5b7f4e487b7100000000000000000000000000000000000000000000000000000000600052604160045260246000fd5b600080fd5b600080fd5b600080fd5b600080fd5b6000601f19601f8301169050919050565b7f546865204465782069732072756e6e696e67206c6f77206f662066756e647300600082015250565b611b3081611894565b8114611b3b57600080fd5b50565b611b47816118a6565b8114611b5257600080fd5b50565b611b5e816118d2565b8114611b6957600080fd5b5056fea264697066735822122063245173e73a0c6885d74c7a91ad4613df588b59a8ac7ee6636af2988d99c8ae64736f6c6343000805003360806040523480156200001157600080fd5b506040516200190b3803806200190b833981810160405281019062000037919062000343565b818181600390805190602001906200005192919062000215565b5080600490805190602001906200006a92919062000215565b5050506200008a336a084595161401484a0000006200009260201b60201c565b505062000693565b600073ffffffffffffffffffffffffffffffffffffffff168273ffffffffffffffffffffffffffffffffffffffff16141562000105576040517f08c379a0000000000000000000000000000000000000000000000000000000008152600401620000fc9062000400565b60405180910390fd5b62000119600083836200020b60201b60201c565b80600260008282546200012d9190620004af565b92505081905550806000808473ffffffffffffffffffffffffffffffffffffffff1673ffffffffffffffffffffffffffffffffffffffff1681526020019081526020016000206000828254620001849190620004af565b925050819055508173ffffffffffffffffffffffffffffffffffffffff16600073ffffffffffffffffffffffffffffffffffffffff167fddf252ad1be2c89b69c2b068fc378daa952ba7f163c4a11628f55a4df523b3ef83604051620001eb919062000422565b60405180910390a362000207600083836200021060201b60201c565b5050565b505050565b505050565b82805462000223906200054c565b90600052602060002090601f01602090048101928262000247576000855562000293565b82601f106200026257805160ff191683800117855562000293565b8280016001018555821562000293579182015b828111156200029257825182559160200191906001019062000275565b5b509050620002a29190620002a6565b5090565b5b80821115620002c1576000816000905550600101620002a7565b5090565b6000620002dc620002d68462000468565b6200043f565b905082815260208101848484011115620002fb57620002fa6200064a565b5b6200030884828562000516565b509392505050565b600082601f83011262000328576200032762000645565b5b81516200033a848260208601620002c5565b91505092915050565b600080604083850312156200035d576200035c62000654565b5b600083015167ffffffffffffffff8111156200037e576200037d6200064f565b5b6200038c8582860162000310565b925050602083015167ffffffffffffffff811115620003b057620003af6200064f565b5b620003be8582860162000310565b9150509250929050565b6000620003d7601f836200049e565b9150620003e4826200066a565b602082019050919050565b620003fa816200050c565b82525050565b600060208201905081810360008301526200041b81620003c8565b9050919050565b6000602082019050620004396000830184620003ef565b92915050565b60006200044b6200045e565b905062000459828262000582565b919050565b6000604051905090565b600067ffffffffffffffff82111562000486576200048562000616565b5b620004918262000659565b9050602081019050919050565b600082825260208201905092915050565b6000620004bc826200050c565b9150620004c9836200050c565b9250827fffffffffffffffffffffffffffffffffffffffffffffffffffffffffffffffff03821115620005015762000500620005b8565b5b828201905092915050565b6000819050919050565b60005b838110156200053657808201518184015260208101905062000519565b8381111562000546576000848401525b50505050565b600060028204905060018216806200056557607f821691505b602082108114156200057c576200057b620005e7565b5b50919050565b6200058d8262000659565b810181811067ffffffffffffffff82111715620005af57620005ae62000616565b5b80604052505050565b7f4e487b7100000000000000000000000000000000000000000000000000000000600052601160045260246000fd5b7f4e487b7100000000000000000000000000000000000000000000000000000000600052602260045260246000fd5b7f4e487b7100000000000000000000000000000000000000000000000000000000600052604160045260246000fd5b600080fd5b600080fd5b600080fd5b600080fd5b6000601f19601f8301169050919050565b7f45524332303a206d696e7420746f20746865207a65726f206164647265737300600082015250565b61126880620006a36000396000f3fe608060405234801561001057600080fd5b50600436106100a95760003560e01c80633950935111610071578063395093511461016857806370a082311461019857806395d89b41146101c8578063a457c2d7146101e6578063a9059cbb14610216578063dd62ed3e14610246576100a9565b806306fdde03146100ae578063095ea7b3146100cc57806318160ddd146100fc57806323b872dd1461011a578063313ce5671461014a575b600080fd5b6100b6610276565b6040516100c39190610d29565b60405180910390f35b6100e660048036038101906100e19190610b73565b610308565b6040516100f39190610d0e565b60405180910390f35b61010461032b565b6040516101119190610e2b565b60405180910390f35b610134600480360381019061012f9190610b20565b610335565b6040516101419190610d0e565b60405180910390f35b610152610364565b60405161015f9190610e46565b60405180910390f35b610182600480360381019061017d9190610b73565b61036d565b60405161018f9190610d0e565b60405180910390f35b6101b260048036038101906101ad9190610ab3565b6103a4565b6040516101bf9190610e2b565b60405180910390f35b6101d06103ec565b6040516101dd9190610d29565b60405180910390f35b61020060048036038101906101fb9190610b73565b61047e565b60405161020d9190610d0e565b60405180910390f35b610230600480360381019061022b9190610b73565b6104f5565b60405161023d9190610d0e565b60405180910390f35b610260600480360381019061025b9190610ae0565b610518565b60405161026d9190610e2b565b60405180910390f35b60606003805461028590610f5b565b80601f01602080910402602001604051908101604052809291908181526020018280546102b190610f5b565b80156102fe5780601f106102d3576101008083540402835291602001916102fe565b820191906000526020600020905b8154815290600101906020018083116102e157829003601f168201915b5050505050905090565b60008061031361059f565b90506103208185856105a7565b600191505092915050565b6000600254905090565b60008061034061059f565b905061034d858285610772565b6103588585856107fe565b60019150509392505050565b60006012905090565b60008061037861059f565b905061039981858561038a8589610518565b6103949190610e7d565b6105a7565b600191505092915050565b60008060008373ffffffffffffffffffffffffffffffffffffffff1673ffffffffffffffffffffffffffffffffffffffff168152602001908152602001600020549050919050565b6060600480546103fb90610f5b565b80601f016020809104026020016040519081016040528092919081815260200182805461042790610f5b565b80156104745780601f1061044957610100808354040283529160200191610474565b820191906000526020600020905b81548152906001019060200180831161045757829003601f168201915b5050505050905090565b60008061048961059f565b905060006104978286610518565b9050838110156104dc576040517f08c379a00000000000000000000000000000000000000000000000000000000081526004016104d390610e0b565b60405180910390fd5b6104e982868684036105a7565b60019250505092915050565b60008061050061059f565b905061050d8185856107fe565b600191505092915050565b6000600160008473ffffffffffffffffffffffffffffffffffffffff1673ffffffffffffffffffffffffffffffffffffffff16815260200190815260200160002060008373ffffffffffffffffffffffffffffffffffffffff1673ffffffffffffffffffffffffffffffffffffffff16815260200190815260200160002054905092915050565b600033905090565b600073ffffffffffffffffffffffffffffffffffffffff168373ffffffffffffffffffffffffffffffffffffffff161415610617576040517f08c379a000000000000000000000000000000000000000000000000000000000815260040161060e90610deb565b60405180910390fd5b600073ffffffffffffffffffffffffffffffffffffffff168273ffffffffffffffffffffffffffffffffffffffff161415610687576040517f08c379a000000000000000000000000000000000000000000000000000000000815260040161067e90610d6b565b60405180910390fd5b80600160008573ffffffffffffffffffffffffffffffffffffffff1673ffffffffffffffffffffffffffffffffffffffff16815260200190815260200160002060008473ffffffffffffffffffffffffffffffffffffffff1673ffffffffffffffffffffffffffffffffffffffff168152602001908152602001600020819055508173ffffffffffffffffffffffffffffffffffffffff168373ffffffffffffffffffffffffffffffffffffffff167f8c5be1e5ebec7d5bd14f71427d1e84f3dd0314c0f7b2291e5b200ac8c7c3b925836040516107659190610e2b565b60405180910390a3505050565b600061077e8484610518565b90507fffffffffffffffffffffffffffffffffffffffffffffffffffffffffffffffff81146107f857818110156107ea576040517f08c379a00000000000000000000000000000000000000000000000000000000081526004016107e190610d8b565b60405180910390fd5b6107f784848484036105a7565b5b50505050565b600073ffffffffffffffffffffffffffffffffffffffff168373ffffffffffffffffffffffffffffffffffffffff16141561086e576040517f08c379a000000000000000000000000000000000000000000000000000000000815260040161086590610dcb565b60405180910390fd5b600073ffffffffffffffffffffffffffffffffffffffff168273ffffffffffffffffffffffffffffffffffffffff1614156108de576040517f08c379a00000000000000000000000000000000000000000000000000000000081526004016108d590610d4b565b60405180910390fd5b6108e9838383610a7f565b60008060008573ffffffffffffffffffffffffffffffffffffffff1673ffffffffffffffffffffffffffffffffffffffff1681526020019081526020016000205490508181101561096f576040517f08c379a000000000000000000000000000000000000000000000000000000000815260040161096690610dab565b60405180910390fd5b8181036000808673ffffffffffffffffffffffffffffffffffffffff1673ffffffffffffffffffffffffffffffffffffffff16815260200190815260200160002081905550816000808573ffffffffffffffffffffffffffffffffffffffff1673ffffffffffffffffffffffffffffffffffffffff1681526020019081526020016000206000828254610a029190610e7d565b925050819055508273ffffffffffffffffffffffffffffffffffffffff168473ffffffffffffffffffffffffffffffffffffffff167fddf252ad1be2c89b69c2b068fc378daa952ba7f163c4a11628f55a4df523b3ef84604051610a669190610e2b565b60405180910390a3610a79848484610a84565b50505050565b505050565b505050565b600081359050610a9881611204565b92915050565b600081359050610aad8161121b565b92915050565b600060208284031215610ac957610ac8610feb565b5b6000610ad784828501610a89565b91505092915050565b60008060408385031215610af757610af6610feb565b5b6000610b0585828601610a89565b9250506020610b1685828601610a89565b9150509250929050565b600080600060608486031215610b3957610b38610feb565b5b6000610b4786828701610a89565b9350506020610b5886828701610a89565b9250506040610b6986828701610a9e565b9150509250925092565b60008060408385031215610b8a57610b89610feb565b5b6000610b9885828601610a89565b9250506020610ba985828601610a9e565b9150509250929050565b610bbc81610ee5565b82525050565b6000610bcd82610e61565b610bd78185610e6c565b9350610be7818560208601610f28565b610bf081610ff0565b840191505092915050565b6000610c08602383610e6c565b9150610c1382611001565b604082019050919050565b6000610c2b602283610e6c565b9150610c3682611050565b604082019050919050565b6000610c4e601d83610e6c565b9150610c598261109f565b602082019050919050565b6000610c71602683610e6c565b9150610c7c826110c8565b604082019050919050565b6000610c94602583610e6c565b9150610c9f82611117565b604082019050919050565b6000610cb7602483610e6c565b9150610cc282611166565b604082019050919050565b6000610cda602583610e6c565b9150610ce5826111b5565b604082019050919050565b610cf981610f11565b82525050565b610d0881610f1b565b82525050565b6000602082019050610d236000830184610bb3565b92915050565b60006020820190508181036000830152610d438184610bc2565b905092915050565b60006020820190508181036000830152610d6481610bfb565b9050919050565b60006020820190508181036000830152610d8481610c1e565b9050919050565b60006020820190508181036000830152610da481610c41565b9050919050565b60006020820190508181036000830152610dc481610c64565b9050919050565b60006020820190508181036000830152610de481610c87565b9050919050565b60006020820190508181036000830152610e0481610caa565b9050919050565b60006020820190508181036000830152610e2481610ccd565b9050919050565b6000602082019050610e406000830184610cf0565b92915050565b6000602082019050610e5b6000830184610cff565b92915050565b600081519050919050565b600082825260208201905092915050565b6000610e8882610f11565b9150610e9383610f11565b9250827fffffffffffffffffffffffffffffffffffffffffffffffffffffffffffffffff03821115610ec857610ec7610f8d565b5b828201905092915050565b6000610ede82610ef1565b9050919050565b60008115159050919050565b600073ffffffffffffffffffffffffffffffffffffffff82169050919050565b6000819050919050565b600060ff82169050919050565b60005b83811015610f46578082015181840152602081019050610f2b565b83811115610f55576000848401525b50505050565b60006002820490506001821680610f7357607f821691505b60208210811415610f8757610f86610fbc565b5b50919050565b7f4e487b7100000000000000000000000000000000000000000000000000000000600052601160045260246000fd5b7f4e487b7100000000000000000000000000000000000000000000000000000000600052602260045260246000fd5b600080fd5b6000601f19601f8301169050919050565b7f45524332303a207472616e7366657220746f20746865207a65726f206164647260008201527f6573730000000000000000000000000000000000000000000000000000000000602082015250565b7f45524332303a20617070726f766520746f20746865207a65726f20616464726560008201527f7373000000000000000000000000000000000000000000000000000000000000602082015250565b7f45524332303a20696e73756666696369656e7420616c6c6f77616e6365000000600082015250565b7f45524332303a207472616e7366657220616d6f756e742065786365656473206260008201527f616c616e63650000000000000000000000000000000000000000000000000000602082015250565b7f45524332303a207472616e736665722066726f6d20746865207a65726f20616460008201527f6472657373000000000000000000000000000000000000000000000000000000602082015250565b7f45524332303a20617070726f76652066726f6d20746865207a65726f2061646460008201527f7265737300000000000000000000000000000000000000000000000000000000602082015250565b7f45524332303a2064656372656173656420616c6c6f77616e63652062656c6f7760008201527f207a65726f000000000000000000000000000000000000000000000000000000602082015250565b61120d81610ed3565b811461121857600080fd5b50565b61122481610f11565b811461122f57600080fd5b5056fea2646970667358221220d3435e1e449a25ed51773b76734444b2208d66f14b6a42b00948c9e7f950246964736f6c63430008050033",
  "linkReferences": {},
  "deployedLinkReferences": {}
}